{
  "contractName": "RealEstate",
  "abi": [
    {
      "inputs": [
        {
          "internalType": "uint256",
          "name": "",
          "type": "uint256"
        }
      ],
      "name": "realEstates",
      "outputs": [
        {
          "internalType": "uint256",
          "name": "Price",
          "type": "uint256"
        },
        {
          "internalType": "uint256",
          "name": "Size",
          "type": "uint256"
        },
        {
          "internalType": "string",
          "name": "Address",
          "type": "string"
        },
        {
          "internalType": "string",
          "name": "Description",
          "type": "string"
        },
        {
          "internalType": "string",
          "name": "Documents",
          "type": "string"
        },
        {
          "internalType": "uint256",
          "name": "nbRooms",
          "type": "uint256"
        },
        {
          "internalType": "bool",
          "name": "selling",
          "type": "bool"
        },
        {
          "internalType": "address",
          "name": "owner",
          "type": "address"
        }
      ],
      "stateMutability": "view",
      "type": "function",
      "constant": true
    },
    {
      "inputs": [
        {
          "internalType": "address",
          "name": "",
          "type": "address"
        },
        {
          "internalType": "uint256",
          "name": "",
          "type": "uint256"
        }
      ],
      "name": "realEstatesByOwner",
      "outputs": [
        {
          "internalType": "uint256",
          "name": "Price",
          "type": "uint256"
        },
        {
          "internalType": "uint256",
          "name": "Size",
          "type": "uint256"
        },
        {
          "internalType": "string",
          "name": "Address",
          "type": "string"
        },
        {
          "internalType": "string",
          "name": "Description",
          "type": "string"
        },
        {
          "internalType": "string",
          "name": "Documents",
          "type": "string"
        },
        {
          "internalType": "uint256",
          "name": "nbRooms",
          "type": "uint256"
        },
        {
          "internalType": "bool",
          "name": "selling",
          "type": "bool"
        },
        {
          "internalType": "address",
          "name": "owner",
          "type": "address"
        }
      ],
      "stateMutability": "view",
      "type": "function",
      "constant": true
    },
    {
      "inputs": [
        {
          "internalType": "uint256",
          "name": "_price",
          "type": "uint256"
        },
        {
          "internalType": "uint256",
          "name": "_size",
          "type": "uint256"
        },
        {
          "internalType": "string",
          "name": "_Address",
          "type": "string"
        },
        {
          "internalType": "string",
          "name": "_description",
          "type": "string"
        },
        {
          "internalType": "string",
          "name": "_documents",
          "type": "string"
        },
        {
          "internalType": "uint256",
          "name": "_nbRooms",
          "type": "uint256"
        }
      ],
      "name": "post",
      "outputs": [],
      "stateMutability": "nonpayable",
      "type": "function"
    },
    {
      "inputs": [
        {
          "internalType": "uint256",
          "name": "_id",
          "type": "uint256"
        }
      ],
      "name": "buy",
      "outputs": [],
      "stateMutability": "payable",
      "type": "function",
      "payable": true
    },
    {
      "inputs": [],
      "name": "getAllRealEstates",
      "outputs": [
        {
          "components": [
            {
              "internalType": "uint256",
              "name": "Price",
              "type": "uint256"
            },
            {
              "internalType": "uint256",
              "name": "Size",
              "type": "uint256"
            },
            {
              "internalType": "string",
              "name": "Address",
              "type": "string"
            },
            {
              "internalType": "string",
              "name": "Description",
              "type": "string"
            },
            {
              "internalType": "string",
              "name": "Documents",
              "type": "string"
            },
            {
              "internalType": "uint256",
              "name": "nbRooms",
              "type": "uint256"
            },
            {
              "internalType": "bool",
              "name": "selling",
              "type": "bool"
            },
            {
              "internalType": "address",
              "name": "owner",
              "type": "address"
            }
          ],
          "internalType": "struct RealEstate.Informations[]",
          "name": "",
          "type": "tuple[]"
        }
      ],
      "stateMutability": "view",
      "type": "function",
      "constant": true
    },
    {
      "inputs": [
        {
          "internalType": "address",
          "name": "owner",
          "type": "address"
        }
      ],
      "name": "getEstatesByOwner",
      "outputs": [
        {
          "components": [
            {
              "internalType": "uint256",
              "name": "Price",
              "type": "uint256"
            },
            {
              "internalType": "uint256",
              "name": "Size",
              "type": "uint256"
            },
            {
              "internalType": "string",
              "name": "Address",
              "type": "string"
            },
            {
              "internalType": "string",
              "name": "Description",
              "type": "string"
            },
            {
              "internalType": "string",
              "name": "Documents",
              "type": "string"
            },
            {
              "internalType": "uint256",
              "name": "nbRooms",
              "type": "uint256"
            },
            {
              "internalType": "bool",
              "name": "selling",
              "type": "bool"
            },
            {
              "internalType": "address",
              "name": "owner",
              "type": "address"
            }
          ],
          "internalType": "struct RealEstate.Informations[]",
          "name": "",
          "type": "tuple[]"
        }
      ],
      "stateMutability": "view",
      "type": "function",
      "constant": true
    }
  ],
  "bytecode": "0x608060405234801561001057600080fd5b50611a2b806100206000396000f3fe6080604052600436106100555760003560e01c80631ba205471461005a5780639043c35c1461009e57806399395945146100c9578063a541027f1461010d578063bda87cb51461014a578063d96a094a14610173575b600080fd5b34801561006657600080fd5b50610081600480360381019061007c91906110ea565b61018f565b6040516100959897969594939291906111f3565b60405180910390f35b3480156100aa57600080fd5b506100b36103b9565b6040516100c0919061147d565b60405180910390f35b3480156100d557600080fd5b506100f060048036038101906100eb919061149f565b61065e565b6040516101049897969594939291906111f3565b60405180910390f35b34801561011957600080fd5b50610134600480360381019061012f91906114cc565b61087b565b604051610141919061147d565b60405180910390f35b34801561015657600080fd5b50610171600480360381019061016c919061155e565b610b5f565b005b61018d6004803603810190610188919061149f565b610eb5565b005b600160205281600052604060002081815481106101ab57600080fd5b9060005260206000209060070201600091509150508060000154908060010154908060020180546101db9061167c565b80601f01602080910402602001604051908101604052809291908181526020018280546102079061167c565b80156102545780601f1061022957610100808354040283529160200191610254565b820191906000526020600020905b81548152906001019060200180831161023757829003601f168201915b5050505050908060030180546102699061167c565b80601f01602080910402602001604051908101604052809291908181526020018280546102959061167c565b80156102e25780601f106102b7576101008083540402835291602001916102e2565b820191906000526020600020905b8154815290600101906020018083116102c557829003601f168201915b5050505050908060040180546102f79061167c565b80601f01602080910402602001604051908101604052809291908181526020018280546103239061167c565b80156103705780601f1061034557610100808354040283529160200191610370565b820191906000526020600020905b81548152906001019060200180831161035357829003601f168201915b5050505050908060050154908060060160009054906101000a900460ff16908060060160019054906101000a900473ffffffffffffffffffffffffffffffffffffffff16905088565b60606000805480602002602001604051908101604052809291908181526020016000905b8282101561065557838290600052602060002090600702016040518061010001604052908160008201548152602001600182015481526020016002820180546104259061167c565b80601f01602080910402602001604051908101604052809291908181526020018280546104519061167c565b801561049e5780601f106104735761010080835404028352916020019161049e565b820191906000526020600020905b81548152906001019060200180831161048157829003601f168201915b505050505081526020016003820180546104b79061167c565b80601f01602080910402602001604051908101604052809291908181526020018280546104e39061167c565b80156105305780601f1061050557610100808354040283529160200191610530565b820191906000526020600020905b81548152906001019060200180831161051357829003601f168201915b505050505081526020016004820180546105499061167c565b80601f01602080910402602001604051908101604052809291908181526020018280546105759061167c565b80156105c25780601f10610597576101008083540402835291602001916105c2565b820191906000526020600020905b8154815290600101906020018083116105a557829003601f168201915b50505050508152602001600582015481526020016006820160009054906101000a900460ff161515151581526020016006820160019054906101000a900473ffffffffffffffffffffffffffffffffffffffff1673ffffffffffffffffffffffffffffffffffffffff1673ffffffffffffffffffffffffffffffffffffffff1681525050815260200190600101906103dd565b50505050905090565b6000818154811061066e57600080fd5b906000526020600020906007020160009150905080600001549080600101549080600201805461069d9061167c565b80601f01602080910402602001604051908101604052809291908181526020018280546106c99061167c565b80156107165780601f106106eb57610100808354040283529160200191610716565b820191906000526020600020905b8154815290600101906020018083116106f957829003601f168201915b50505050509080600301805461072b9061167c565b80601f01602080910402602001604051908101604052809291908181526020018280546107579061167c565b80156107a45780601f10610779576101008083540402835291602001916107a4565b820191906000526020600020905b81548152906001019060200180831161078757829003601f168201915b5050505050908060040180546107b99061167c565b80601f01602080910402602001604051908101604052809291908181526020018280546107e59061167c565b80156108325780601f1061080757610100808354040283529160200191610832565b820191906000526020600020905b81548152906001019060200180831161081557829003601f168201915b5050505050908060050154908060060160009054906101000a900460ff16908060060160019054906101000a900473ffffffffffffffffffffffffffffffffffffffff16905088565b6060600160008373ffffffffffffffffffffffffffffffffffffffff1673ffffffffffffffffffffffffffffffffffffffff168152602001908152602001600020805480602002602001604051908101604052809291908181526020016000905b82821015610b5457838290600052602060002090600702016040518061010001604052908160008201548152602001600182015481526020016002820180546109249061167c565b80601f01602080910402602001604051908101604052809291908181526020018280546109509061167c565b801561099d5780601f106109725761010080835404028352916020019161099d565b820191906000526020600020905b81548152906001019060200180831161098057829003601f168201915b505050505081526020016003820180546109b69061167c565b80601f01602080910402602001604051908101604052809291908181526020018280546109e29061167c565b8015610a2f5780601f10610a0457610100808354040283529160200191610a2f565b820191906000526020600020905b815481529060010190602001808311610a1257829003601f168201915b50505050508152602001600482018054610a489061167c565b80601f0160208091040260200160405190810160405280929190818152602001828054610a749061167c565b8015610ac15780601f10610a9657610100808354040283529160200191610ac1565b820191906000526020600020905b815481529060010190602001808311610aa457829003601f168201915b50505050508152602001600582015481526020016006820160009054906101000a900460ff161515151581526020016006820160019054906101000a900473ffffffffffffffffffffffffffffffffffffffff1673ffffffffffffffffffffffffffffffffffffffff1673ffffffffffffffffffffffffffffffffffffffff1681525050815260200190600101906108dc565b505050509050919050565b60006040518061010001604052808b81526020018a815260200189898080601f016020809104026020016040519081016040528093929190818152602001838380828437600081840152601f19601f82011690508083019250505050505050815260200187878080601f016020809104026020016040519081016040528093929190818152602001838380828437600081840152601f19601f82011690508083019250505050505050815260200185858080601f016020809104026020016040519081016040528093929190818152602001838380828437600081840152601f19601f8201169050808301925050505050505081526020018381526020016001151581526020013373ffffffffffffffffffffffffffffffffffffffff168152509050600081908060018154018082558091505060019003906000526020600020906007020160009091909190915060008201518160000155602082015181600101556040820151816002019081610cd79190611888565b506060820151816003019081610ced9190611888565b506080820151816004019081610d039190611888565b5060a0820151816005015560c08201518160060160006101000a81548160ff02191690831515021790555060e08201518160060160016101000a81548173ffffffffffffffffffffffffffffffffffffffff021916908373ffffffffffffffffffffffffffffffffffffffff1602179055505050600160003373ffffffffffffffffffffffffffffffffffffffff1673ffffffffffffffffffffffffffffffffffffffff16815260200190815260200160002081908060018154018082558091505060019003906000526020600020906007020160009091909190915060008201518160000155602082015181600101556040820151816002019081610e099190611888565b506060820151816003019081610e1f9190611888565b506080820151816004019081610e359190611888565b5060a0820151816005015560c08201518160060160006101000a81548160ff02191690831515021790555060e08201518160060160016101000a81548173ffffffffffffffffffffffffffffffffffffffff021916908373ffffffffffffffffffffffffffffffffffffffff160217905550505050505050505050505050565b3460008281548110610eca57610ec961195a565b5b90600052602060002090600702016000015414610f1c576040517f08c379a0000000000000000000000000000000000000000000000000000000008152600401610f13906119d5565b60405180910390fd5b60008181548110610f3057610f2f61195a565b5b906000526020600020906007020160060160019054906101000a900473ffffffffffffffffffffffffffffffffffffffff1673ffffffffffffffffffffffffffffffffffffffff166108fc349081150290604051600060405180830381858888f19350505050158015610fa7573d6000803e3d6000fd5b503360008281548110610fbd57610fbc61195a565b5b906000526020600020906007020160060160016101000a81548173ffffffffffffffffffffffffffffffffffffffff021916908373ffffffffffffffffffffffffffffffffffffffff16021790555060008082815481106110215761102061195a565b5b906000526020600020906007020160060160006101000a81548160ff02191690831515021790555050565b600080fd5b600080fd5b600073ffffffffffffffffffffffffffffffffffffffff82169050919050565b600061108182611056565b9050919050565b61109181611076565b811461109c57600080fd5b50565b6000813590506110ae81611088565b92915050565b6000819050919050565b6110c7816110b4565b81146110d257600080fd5b50565b6000813590506110e4816110be565b92915050565b600080604083850312156111015761110061104c565b5b600061110f8582860161109f565b9250506020611120858286016110d5565b9150509250929050565b611133816110b4565b82525050565b600081519050919050565b600082825260208201905092915050565b60005b83811015611173578082015181840152602081019050611158565b60008484015250505050565b6000601f19601f8301169050919050565b600061119b82611139565b6111a58185611144565b93506111b5818560208601611155565b6111be8161117f565b840191505092915050565b60008115159050919050565b6111de816111c9565b82525050565b6111ed81611076565b82525050565b600061010082019050611209600083018b61112a565b611216602083018a61112a565b81810360408301526112288189611190565b9050818103606083015261123c8188611190565b905081810360808301526112508187611190565b905061125f60a083018661112a565b61126c60c08301856111d5565b61127960e08301846111e4565b9998505050505050505050565b600081519050919050565b600082825260208201905092915050565b6000819050602082019050919050565b6112bb816110b4565b82525050565b600082825260208201905092915050565b60006112dd82611139565b6112e781856112c1565b93506112f7818560208601611155565b6113008161117f565b840191505092915050565b611314816111c9565b82525050565b61132381611076565b82525050565b60006101008301600083015161134260008601826112b2565b50602083015161135560208601826112b2565b506040830151848203604086015261136d82826112d2565b9150506060830151848203606086015261138782826112d2565b915050608083015184820360808601526113a182826112d2565b91505060a08301516113b660a08601826112b2565b5060c08301516113c960c086018261130b565b5060e08301516113dc60e086018261131a565b508091505092915050565b60006113f38383611329565b905092915050565b6000602082019050919050565b600061141382611286565b61141d8185611291565b93508360208202850161142f856112a2565b8060005b8581101561146b578484038952815161144c85826113e7565b9450611457836113fb565b925060208a01995050600181019050611433565b50829750879550505050505092915050565b600060208201905081810360008301526114978184611408565b905092915050565b6000602082840312156114b5576114b461104c565b5b60006114c3848285016110d5565b91505092915050565b6000602082840312156114e2576114e161104c565b5b60006114f08482850161109f565b91505092915050565b600080fd5b600080fd5b600080fd5b60008083601f84011261151e5761151d6114f9565b5b8235905067ffffffffffffffff81111561153b5761153a6114fe565b5b60208301915083600182028301111561155757611556611503565b5b9250929050565b600080600080600080600080600060c08a8c0312156115805761157f61104c565b5b600061158e8c828d016110d5565b995050602061159f8c828d016110d5565b98505060408a013567ffffffffffffffff8111156115c0576115bf611051565b5b6115cc8c828d01611508565b975097505060608a013567ffffffffffffffff8111156115ef576115ee611051565b5b6115fb8c828d01611508565b955095505060808a013567ffffffffffffffff81111561161e5761161d611051565b5b61162a8c828d01611508565b935093505060a061163d8c828d016110d5565b9150509295985092959850929598565b7f4e487b7100000000000000000000000000000000000000000000000000000000600052602260045260246000fd5b6000600282049050600182168061169457607f821691505b6020821081036116a7576116a661164d565b5b50919050565b7f4e487b7100000000000000000000000000000000000000000000000000000000600052604160045260246000fd5b60008190508160005260206000209050919050565b60006020601f8301049050919050565b600082821b905092915050565b60006008830261173e7fffffffffffffffffffffffffffffffffffffffffffffffffffffffffffffffff82611701565b6117488683611701565b95508019841693508086168417925050509392505050565b6000819050919050565b600061178561178061177b846110b4565b611760565b6110b4565b9050919050565b6000819050919050565b61179f8361176a565b6117b36117ab8261178c565b84845461170e565b825550505050565b600090565b6117c86117bb565b6117d3818484611796565b505050565b5b818110156117f7576117ec6000826117c0565b6001810190506117d9565b5050565b601f82111561183c5761180d816116dc565b611816846116f1565b81016020851015611825578190505b611839611831856116f1565b8301826117d8565b50505b505050565b600082821c905092915050565b600061185f60001984600802611841565b1980831691505092915050565b6000611878838361184e565b9150826002028217905092915050565b61189182611139565b67ffffffffffffffff8111156118aa576118a96116ad565b5b6118b4825461167c565b6118bf8282856117fb565b600060209050601f8311600181146118f257600084156118e0578287015190505b6118ea858261186c565b865550611952565b601f198416611900866116dc565b60005b8281101561192857848901518255600182019150602085019450602081019050611903565b868310156119455784890151611941601f89168261184e565b8355505b6001600288020188555050505b505050505050565b7f4e487b7100000000000000000000000000000000000000000000000000000000600052603260045260246000fd5b7f4572726f72207072696365000000000000000000000000000000000000000000600082015250565b60006119bf600b83611144565b91506119ca82611989565b602082019050919050565b600060208201905081810360008301526119ee816119b2565b905091905056fea2646970667358221220d68dfd7360f295aa55044fdbb31ee1e89d259c94796e5327003f4d6e667362ad64736f6c63430008110033",
  "immutableReferences": {},
  "source": "// SPDX-License-Identifier: MIT\r\npragma solidity >=0.4.22 <0.9.0;\r\n\r\ncontract RealEstate {\r\n   struct Informations {\r\n        uint256 Price; \r\n        uint256 Size;\r\n        string Address;\r\n        string Description;\r\n        string Documents;\r\n        uint256 nbRooms;\r\n        bool selling;\r\n        address owner;\r\n    }\r\n\r\n    Informations[] public realEstates;\r\n    mapping(address => Informations[]) public realEstatesByOwner;\r\n\r\n    function post(uint256 _price, uint256 _size, string calldata _Address,\r\n                  string calldata _description, string calldata _documents, uint256 _nbRooms) external {\r\n        Informations memory realEstate = Informations(\r\n            _price,\r\n            _size,\r\n            _Address,\r\n            _description,\r\n            _documents,\r\n            _nbRooms,\r\n            true,\r\n            msg.sender\r\n        );\r\n        realEstates.push(realEstate);\r\n        realEstatesByOwner[msg.sender].push(realEstate);\r\n    } \r\n\r\n    function buy(uint256 _id) public payable {\r\n        require(realEstates[_id].Price == msg.value, \"Error price\");\r\n        payable(realEstates[_id].owner).transfer(msg.value);\r\n        realEstates[_id].owner = msg.sender; \r\n        realEstates[_id].selling = false; \r\n    }\r\n\r\n    function getAllRealEstates() external view returns (Informations[] memory) {\r\n        return realEstates;\r\n    }\r\n\r\n    function getEstatesByOwner(address owner) external view returns (Informations[] memory) {\r\n    \r\n       return realEstatesByOwner[owner];\r\n    }\r\n\r\n}\r\n",
  "sourcePath": "C:\\Users\\ibekkouc\\Downloads\\blockchain\\new depot\\blockchain-5al\\web3\\contracts\\RealEstate.sol",
  "compiler": {
    "name": "solc",
    "version": "0.8.17+commit.8df45f5f.Emscripten.clang"
  },
  "schemaVersion": "3.4.10",
  "updatedAt": "2022-12-20T23:10:28.482Z",
  "networkType": "ethereum",
  "devdoc": {
    "kind": "dev",
    "methods": {},
    "version": 1
  },
  "userdoc": {
    "kind": "user",
    "methods": {},
    "version": 1
  }
}